{
  "contractName": "BwindiSale",
  "abi": [
    {
      "inputs": [],
      "stateMutability": "nonpayable",
      "type": "constructor"
    },
    {
      "inputs": [
        {
          "internalType": "address",
          "name": "",
          "type": "address"
        },
        {
          "internalType": "uint256",
          "name": "",
          "type": "uint256"
        }
      ],
      "name": "nftContractSales",
      "outputs": [
        {
          "internalType": "bool",
          "name": "onSale",
          "type": "bool"
        },
        {
          "internalType": "address",
          "name": "nftSeller",
          "type": "address"
        },
        {
          "internalType": "uint256",
          "name": "price",
          "type": "uint256"
        },
        {
          "internalType": "address",
          "name": "nftRecipient",
          "type": "address"
        },
        {
          "internalType": "address",
          "name": "erc20Token",
          "type": "address"
        }
      ],
      "stateMutability": "view",
      "type": "function"
    },
    {
      "inputs": [
        {
          "internalType": "address",
          "name": "_nftContractAddress",
          "type": "address"
        },
        {
          "internalType": "uint256",
          "name": "_tokenId",
          "type": "uint256"
        }
      ],
      "name": "isOnSale",
      "outputs": [
        {
          "internalType": "bool",
          "name": "",
          "type": "bool"
        }
      ],
      "stateMutability": "view",
      "type": "function"
    },
    {
      "inputs": [
        {
          "internalType": "address",
          "name": "_nftContractAddress",
          "type": "address"
        },
        {
          "internalType": "uint256",
          "name": "_tokenId",
          "type": "uint256"
        },
        {
          "internalType": "uint256",
          "name": "price",
          "type": "uint256"
        },
        {
          "internalType": "address",
          "name": "_erc20Token",
          "type": "address"
        }
      ],
      "name": "putOnSale",
      "outputs": [],
      "stateMutability": "nonpayable",
      "type": "function"
    },
    {
      "inputs": [
        {
          "internalType": "address",
          "name": "_nftContractAddress",
          "type": "address"
        },
        {
          "internalType": "uint256",
          "name": "_tokenId",
          "type": "uint256"
        }
      ],
      "name": "buyFromSale",
      "outputs": [],
      "stateMutability": "payable",
      "type": "function"
    },
    {
      "inputs": [
        {
          "internalType": "address",
          "name": "_nftContractAddress",
          "type": "address"
        },
        {
          "internalType": "uint256",
          "name": "_tokenId",
          "type": "uint256"
        }
      ],
      "name": "cancelSale",
      "outputs": [],
      "stateMutability": "nonpayable",
      "type": "function"
    }
  ],
  "bytecode": "0x608060405234801561001057600080fd5b506113be806100206000396000f3fe60806040526004361061004a5760003560e01c806316f3a95b1461004f5780632a780497146100785780634f62604e146100b957806357a07ee9146100e2578063a550e4b7146100fe575b600080fd5b34801561005b57600080fd5b5061007660048036038101906100719190610e41565b61013b565b005b34801561008457600080fd5b5061009f600480360381019061009a9190610e41565b610343565b6040516100b095949392919061107d565b60405180910390f35b3480156100c557600080fd5b506100e060048036038101906100db9190610e7d565b6103f3565b005b6100fc60048036038101906100f79190610e41565b6107ae565b005b34801561010a57600080fd5b5061012560048036038101906101209190610e41565b610d5a565b6040516101329190611062565b60405180910390f35b60008060008473ffffffffffffffffffffffffffffffffffffffff1673ffffffffffffffffffffffffffffffffffffffff168152602001908152602001600020600083815260200190815260200160002090503373ffffffffffffffffffffffffffffffffffffffff168160000160019054906101000a900473ffffffffffffffffffffffffffffffffffffffff1673ffffffffffffffffffffffffffffffffffffffff1614610220576040517f08c379a000000000000000000000000000000000000000000000000000000000815260040161021790611170565b60405180910390fd5b60008160000160006101000a81548160ff0219169083151502179055506000816001018190555060008160000160016101000a81548173ffffffffffffffffffffffffffffffffffffffff021916908373ffffffffffffffffffffffffffffffffffffffff16021790555060008160030160006101000a81548173ffffffffffffffffffffffffffffffffffffffff021916908373ffffffffffffffffffffffffffffffffffffffff1602179055508273ffffffffffffffffffffffffffffffffffffffff166323b872dd3033856040518463ffffffff1660e01b815260040161030c9392919061102b565b600060405180830381600087803b15801561032657600080fd5b505af115801561033a573d6000803e3d6000fd5b50505050505050565b6000602052816000526040600020602052806000526040600020600091509150508060000160009054906101000a900460ff16908060000160019054906101000a900473ffffffffffffffffffffffffffffffffffffffff16908060010154908060020160009054906101000a900473ffffffffffffffffffffffffffffffffffffffff16908060030160009054906101000a900473ffffffffffffffffffffffffffffffffffffffff16905085565b60008060008673ffffffffffffffffffffffffffffffffffffffff1673ffffffffffffffffffffffffffffffffffffffff16815260200190815260200160002060008581526020019081526020016000209050600073ffffffffffffffffffffffffffffffffffffffff168573ffffffffffffffffffffffffffffffffffffffff16636352211e866040518263ffffffff1660e01b815260040161049791906111b0565b60206040518083038186803b1580156104af57600080fd5b505afa1580156104c3573d6000803e3d6000fd5b505050506040513d601f19601f820116820180604052508101906104e79190610e18565b73ffffffffffffffffffffffffffffffffffffffff16141561053e576040517f08c379a0000000000000000000000000000000000000000000000000000000008152600401610535906110d0565b60405180910390fd5b3373ffffffffffffffffffffffffffffffffffffffff168573ffffffffffffffffffffffffffffffffffffffff16636352211e866040518263ffffffff1660e01b815260040161058e91906111b0565b60206040518083038186803b1580156105a657600080fd5b505afa1580156105ba573d6000803e3d6000fd5b505050506040513d601f19601f820116820180604052508101906105de9190610e18565b73ffffffffffffffffffffffffffffffffffffffff1614610634576040517f08c379a000000000000000000000000000000000000000000000000000000000815260040161062b906110d0565b60405180910390fd5b600015158160000160009054906101000a900460ff1615151461068c576040517f08c379a000000000000000000000000000000000000000000000000000000000815260040161068390611150565b60405180910390fd5b60018160000160006101000a81548160ff021916908315150217905550828160010181905550338160000160016101000a81548173ffffffffffffffffffffffffffffffffffffffff021916908373ffffffffffffffffffffffffffffffffffffffff160217905550818160030160006101000a81548173ffffffffffffffffffffffffffffffffffffffff021916908373ffffffffffffffffffffffffffffffffffffffff1602179055508473ffffffffffffffffffffffffffffffffffffffff166323b872dd3330876040518463ffffffff1660e01b81526004016107759392919061102b565b600060405180830381600087803b15801561078f57600080fd5b505af11580156107a3573d6000803e3d6000fd5b505050505050505050565b60008060008473ffffffffffffffffffffffffffffffffffffffff1673ffffffffffffffffffffffffffffffffffffffff16815260200190815260200160002060008381526020019081526020016000209050600115158160000160009054906101000a900460ff16151514610859576040517f08c379a000000000000000000000000000000000000000000000000000000000815260040161085090611130565b60405180910390fd5b3373ffffffffffffffffffffffffffffffffffffffff168160000160019054906101000a900473ffffffffffffffffffffffffffffffffffffffff1673ffffffffffffffffffffffffffffffffffffffff1614156108ec576040517f08c379a00000000000000000000000000000000000000000000000000000000081526004016108e390611190565b60405180910390fd5b3073ffffffffffffffffffffffffffffffffffffffff168373ffffffffffffffffffffffffffffffffffffffff16636352211e846040518263ffffffff1660e01b815260040161093c91906111b0565b60206040518083038186803b15801561095457600080fd5b505afa158015610968573d6000803e3d6000fd5b505050506040513d601f19601f8201168201806040525081019061098c9190610e18565b73ffffffffffffffffffffffffffffffffffffffff16146109e2576040517f08c379a00000000000000000000000000000000000000000000000000000000081526004016109d990611110565b60405180910390fd5b34816001015414610a28576040517f08c379a0000000000000000000000000000000000000000000000000000000008152600401610a1f906110f0565b60405180910390fd5b600073ffffffffffffffffffffffffffffffffffffffff168160030160009054906101000a900473ffffffffffffffffffffffffffffffffffffffff1673ffffffffffffffffffffffffffffffffffffffff161415610b64578060000160019054906101000a900473ffffffffffffffffffffffffffffffffffffffff1673ffffffffffffffffffffffffffffffffffffffff166108fc82600101549081150290604051600060405180830381858888f19350505050158015610aef573d6000803e3d6000fd5b508273ffffffffffffffffffffffffffffffffffffffff166323b872dd3033856040518463ffffffff1660e01b8152600401610b2d9392919061102b565b600060405180830381600087803b158015610b4757600080fd5b505af1158015610b5b573d6000803e3d6000fd5b50505050610cb0565b8060030160009054906101000a900473ffffffffffffffffffffffffffffffffffffffff1673ffffffffffffffffffffffffffffffffffffffff166323b872dd338360000160019054906101000a900473ffffffffffffffffffffffffffffffffffffffff1684600101546040518463ffffffff1660e01b8152600401610bed9392919061102b565b602060405180830381600087803b158015610c0757600080fd5b505af1158015610c1b573d6000803e3d6000fd5b505050506040513d601f19601f82011682018060405250810190610c3f9190610ee0565b508273ffffffffffffffffffffffffffffffffffffffff166323b872dd3033856040518463ffffffff1660e01b8152600401610c7d9392919061102b565b600060405180830381600087803b158015610c9757600080fd5b505af1158015610cab573d6000803e3d6000fd5b505050505b60008160000160006101000a81548160ff02191690831515021790555060008160000160016101000a81548173ffffffffffffffffffffffffffffffffffffffff021916908373ffffffffffffffffffffffffffffffffffffffff16021790555060008160030160006101000a81548173ffffffffffffffffffffffffffffffffffffffff021916908373ffffffffffffffffffffffffffffffffffffffff160217905550505050565b60008060008473ffffffffffffffffffffffffffffffffffffffff1673ffffffffffffffffffffffffffffffffffffffff168152602001908152602001600020600083815260200190815260200160002060000160009054906101000a900460ff16905092915050565b600081359050610dd381611343565b92915050565b600081519050610de881611343565b92915050565b600081519050610dfd8161135a565b92915050565b600081359050610e1281611371565b92915050565b600060208284031215610e2a57600080fd5b6000610e3884828501610dd9565b91505092915050565b60008060408385031215610e5457600080fd5b6000610e6285828601610dc4565b9250506020610e7385828601610e03565b9150509250929050565b60008060008060808587031215610e9357600080fd5b6000610ea187828801610dc4565b9450506020610eb287828801610e03565b9350506040610ec387828801610e03565b9250506060610ed487828801610dc4565b91505092959194509250565b600060208284031215610ef257600080fd5b6000610f0084828501610dee565b91505092915050565b610f12816111dc565b82525050565b610f21816111ee565b82525050565b6000610f346019836111cb565b9150610f3f82611224565b602082019050919050565b6000610f576016836111cb565b9150610f628261124d565b602082019050919050565b6000610f7a601e836111cb565b9150610f8582611276565b602082019050919050565b6000610f9d6016836111cb565b9150610fa88261129f565b602082019050919050565b6000610fc0601a836111cb565b9150610fcb826112c8565b602082019050919050565b6000610fe36016836111cb565b9150610fee826112f1565b602082019050919050565b60006110066019836111cb565b91506110118261131a565b602082019050919050565b6110258161121a565b82525050565b60006060820190506110406000830186610f09565b61104d6020830185610f09565b61105a604083018461101c565b949350505050565b60006020820190506110776000830184610f18565b92915050565b600060a0820190506110926000830188610f18565b61109f6020830187610f09565b6110ac604083018661101c565b6110b96060830185610f09565b6110c66080830184610f09565b9695505050505050565b600060208201905081810360008301526110e981610f27565b9050919050565b6000602082019050818103600083015261110981610f4a565b9050919050565b6000602082019050818103600083015261112981610f6d565b9050919050565b6000602082019050818103600083015261114981610f90565b9050919050565b6000602082019050818103600083015261116981610fb3565b9050919050565b6000602082019050818103600083015261118981610fd6565b9050919050565b600060208201905081810360008301526111a981610ff9565b9050919050565b60006020820190506111c5600083018461101c565b92915050565b600082825260208201905092915050565b60006111e7826111fa565b9050919050565b60008115159050919050565b600073ffffffffffffffffffffffffffffffffffffffff82169050919050565b6000819050919050565b7f5468697320746f6b656e206964206e6f6e206578697374732100000000000000600082015250565b7f546865207072696365206973206e6f74206d6174636800000000000000000000600082015250565b7f5468697320746f6b656e206973206e6f74206f6e207468652073616c65210000600082015250565b7f546865204e4654206973206e6f74206f6e2073616c6500000000000000000000600082015250565b7f546865204e465420697320616c7265616479206f6e2073616c65000000000000600082015250565b7f596f7520617265206e6f74207468652073656c6c657200000000000000000000600082015250565b7f5468652073656c6c65722063616e277420627579206e66742100000000000000600082015250565b61134c816111dc565b811461135757600080fd5b50565b611363816111ee565b811461136e57600080fd5b50565b61137a8161121a565b811461138557600080fd5b5056fea264697066735822122047f21955feae98b7b497fb5c029204ce92daff17784599b949bb430176156cf464736f6c63430008040033",
  "immutableReferences": {},
  "source": "// SPDX-License-Identifier: MIT\r\npragma solidity ^0.8.0;\r\n\r\nimport \"@openzeppelin/contracts/token/ERC721/IERC721.sol\";\r\nimport \"@openzeppelin/contracts/token/ERC721/ERC721.sol\";\r\nimport \"@openzeppelin/contracts/token/ERC20/IERC20.sol\";\r\n\r\ncontract BwindiSale {\r\n    mapping(address => mapping(uint256 => Sale)) public nftContractSales;\r\n    struct Sale {\r\n        bool onSale;\r\n        address nftSeller;\r\n        uint256 price;\r\n        address nftRecipient; //The bidder can specify a recipient for the NFT if their bid is successful.\r\n        address erc20Token; // The seller can specify an ERC20 token that can be used to bid or purchase the NFT.\r\n    }\r\n\r\n    constructor() \r\n    {\r\n    }\r\n\r\n    function isOnSale(address _nftContractAddress, uint256 _tokenId) public view returns (bool) {\r\n        return nftContractSales[_nftContractAddress][_tokenId].onSale;\r\n    }\r\n\r\n    function putOnSale(address _nftContractAddress, uint256 _tokenId, uint256 price, address _erc20Token) public {\r\n        Sale storage sale = nftContractSales[_nftContractAddress][_tokenId];\r\n        require(IERC721(_nftContractAddress).ownerOf(_tokenId) != address(0), \"This token id non exists!\");\r\n        require(IERC721(_nftContractAddress).ownerOf(_tokenId) == msg.sender, \"This token id non exists!\");\r\n        require(sale.onSale == false, \"The NFT is already on sale\");\r\n        sale.onSale = true;\r\n        sale.price = price;\r\n        sale.nftSeller = msg.sender;\r\n        sale.erc20Token = _erc20Token;\r\n        IERC721(_nftContractAddress).transferFrom(msg.sender, address(this), _tokenId);\r\n    }\r\n\r\n    function buyFromSale(address _nftContractAddress, uint256 _tokenId) public payable {\r\n        Sale storage sale = nftContractSales[_nftContractAddress][_tokenId];\r\n        require(sale.onSale == true, \"The NFT is not on sale\");\r\n        require(sale.nftSeller != msg.sender, \"The seller can't buy nft!\");\r\n        require(IERC721(_nftContractAddress).ownerOf(_tokenId) == address(this), \"This token is not on the sale!\");\r\n        require(sale.price == msg.value, \"The price is not match\");\r\n        if (sale.erc20Token == address(0)) {\r\n            payable(sale.nftSeller).transfer(sale.price);\r\n            IERC721(_nftContractAddress).transferFrom(address(this), msg.sender, _tokenId);\r\n        }\r\n        else {\r\n            IERC20(sale.erc20Token).transferFrom(msg.sender, sale.nftSeller, sale.price);\r\n            IERC721(_nftContractAddress).transferFrom(address(this), msg.sender, _tokenId);\r\n        }\r\n        sale.onSale = false;\r\n        sale.nftSeller = address(0);\r\n        sale.erc20Token = address(0);\r\n    }\r\n\r\n    function cancelSale(address _nftContractAddress, uint256 _tokenId) public {\r\n        Sale storage sale = nftContractSales[_nftContractAddress][_tokenId];\r\n        require (sale.nftSeller == msg.sender, \"You are not the seller\");\r\n        sale.onSale = false;\r\n        sale.price = 0;\r\n        sale.nftSeller = address(0);\r\n        sale.erc20Token = address(0);\r\n        IERC721(_nftContractAddress).transferFrom(address(this), msg.sender, _tokenId);\r\n    }\r\n}",
  "sourcePath": "E:\\2.Dev\\Clients\\US -- Toufik\\bwindi_frontend-master\\src\\contracts\\BwindiSale.sol",
  "compiler": {
    "name": "solc",
    "version": "0.8.4+commit.c7e474f2.Emscripten.clang"
  },
  "schemaVersion": "3.4.4",
  "updatedAt": "2022-02-05T15:43:39.572Z",
  "devdoc": {
    "kind": "dev",
    "methods": {},
    "version": 1
  },
  "userdoc": {
    "kind": "user",
    "methods": {},
    "version": 1
  }
}