{
  "contractName": "NFTCollection",
  "abi": [
    {
      "inputs": [],
      "stateMutability": "nonpayable",
      "type": "constructor"
    },
    {
      "anonymous": false,
      "inputs": [
        {
          "indexed": true,
          "internalType": "address",
          "name": "owner",
          "type": "address"
        },
        {
          "indexed": true,
          "internalType": "address",
          "name": "approved",
          "type": "address"
        },
        {
          "indexed": true,
          "internalType": "uint256",
          "name": "tokenId",
          "type": "uint256"
        }
      ],
      "name": "Approval",
      "type": "event"
    },
    {
      "anonymous": false,
      "inputs": [
        {
          "indexed": true,
          "internalType": "address",
          "name": "owner",
          "type": "address"
        },
        {
          "indexed": true,
          "internalType": "address",
          "name": "operator",
          "type": "address"
        },
        {
          "indexed": false,
          "internalType": "bool",
          "name": "approved",
          "type": "bool"
        }
      ],
      "name": "ApprovalForAll",
      "type": "event"
    },
    {
      "anonymous": false,
      "inputs": [
        {
          "indexed": true,
          "internalType": "address",
          "name": "contractAddress",
          "type": "address"
        },
        {
          "indexed": true,
          "internalType": "address",
          "name": "creator",
          "type": "address"
        },
        {
          "indexed": true,
          "internalType": "uint256",
          "name": "tokenId",
          "type": "uint256"
        }
      ],
      "name": "TokenCreated",
      "type": "event"
    },
    {
      "anonymous": false,
      "inputs": [
        {
          "indexed": true,
          "internalType": "address",
          "name": "from",
          "type": "address"
        },
        {
          "indexed": true,
          "internalType": "address",
          "name": "to",
          "type": "address"
        },
        {
          "indexed": true,
          "internalType": "uint256",
          "name": "tokenId",
          "type": "uint256"
        }
      ],
      "name": "Transfer",
      "type": "event"
    },
    {
      "inputs": [
        {
          "internalType": "address",
          "name": "to",
          "type": "address"
        },
        {
          "internalType": "uint256",
          "name": "tokenId",
          "type": "uint256"
        }
      ],
      "name": "approve",
      "outputs": [],
      "stateMutability": "nonpayable",
      "type": "function"
    },
    {
      "inputs": [
        {
          "internalType": "address",
          "name": "owner",
          "type": "address"
        }
      ],
      "name": "balanceOf",
      "outputs": [
        {
          "internalType": "uint256",
          "name": "",
          "type": "uint256"
        }
      ],
      "stateMutability": "view",
      "type": "function"
    },
    {
      "inputs": [
        {
          "internalType": "uint256",
          "name": "tokenId",
          "type": "uint256"
        }
      ],
      "name": "getApproved",
      "outputs": [
        {
          "internalType": "address",
          "name": "",
          "type": "address"
        }
      ],
      "stateMutability": "view",
      "type": "function"
    },
    {
      "inputs": [
        {
          "internalType": "address",
          "name": "owner",
          "type": "address"
        },
        {
          "internalType": "address",
          "name": "operator",
          "type": "address"
        }
      ],
      "name": "isApprovedForAll",
      "outputs": [
        {
          "internalType": "bool",
          "name": "",
          "type": "bool"
        }
      ],
      "stateMutability": "view",
      "type": "function"
    },
    {
      "inputs": [],
      "name": "name",
      "outputs": [
        {
          "internalType": "string",
          "name": "",
          "type": "string"
        }
      ],
      "stateMutability": "view",
      "type": "function"
    },
    {
      "inputs": [
        {
          "internalType": "uint256",
          "name": "tokenId",
          "type": "uint256"
        }
      ],
      "name": "ownerOf",
      "outputs": [
        {
          "internalType": "address",
          "name": "",
          "type": "address"
        }
      ],
      "stateMutability": "view",
      "type": "function"
    },
    {
      "inputs": [
        {
          "internalType": "address",
          "name": "from",
          "type": "address"
        },
        {
          "internalType": "address",
          "name": "to",
          "type": "address"
        },
        {
          "internalType": "uint256",
          "name": "tokenId",
          "type": "uint256"
        }
      ],
      "name": "safeTransferFrom",
      "outputs": [],
      "stateMutability": "nonpayable",
      "type": "function"
    },
    {
      "inputs": [
        {
          "internalType": "address",
          "name": "from",
          "type": "address"
        },
        {
          "internalType": "address",
          "name": "to",
          "type": "address"
        },
        {
          "internalType": "uint256",
          "name": "tokenId",
          "type": "uint256"
        },
        {
          "internalType": "bytes",
          "name": "_data",
          "type": "bytes"
        }
      ],
      "name": "safeTransferFrom",
      "outputs": [],
      "stateMutability": "nonpayable",
      "type": "function"
    },
    {
      "inputs": [
        {
          "internalType": "address",
          "name": "operator",
          "type": "address"
        },
        {
          "internalType": "bool",
          "name": "approved",
          "type": "bool"
        }
      ],
      "name": "setApprovalForAll",
      "outputs": [],
      "stateMutability": "nonpayable",
      "type": "function"
    },
    {
      "inputs": [],
      "name": "symbol",
      "outputs": [
        {
          "internalType": "string",
          "name": "",
          "type": "string"
        }
      ],
      "stateMutability": "view",
      "type": "function"
    },
    {
      "inputs": [
        {
          "internalType": "uint256",
          "name": "index",
          "type": "uint256"
        }
      ],
      "name": "tokenByIndex",
      "outputs": [
        {
          "internalType": "uint256",
          "name": "",
          "type": "uint256"
        }
      ],
      "stateMutability": "view",
      "type": "function"
    },
    {
      "inputs": [
        {
          "internalType": "address",
          "name": "owner",
          "type": "address"
        },
        {
          "internalType": "uint256",
          "name": "index",
          "type": "uint256"
        }
      ],
      "name": "tokenOfOwnerByIndex",
      "outputs": [
        {
          "internalType": "uint256",
          "name": "",
          "type": "uint256"
        }
      ],
      "stateMutability": "view",
      "type": "function"
    },
    {
      "inputs": [
        {
          "internalType": "uint256",
          "name": "",
          "type": "uint256"
        }
      ],
      "name": "tokenURIs",
      "outputs": [
        {
          "internalType": "string",
          "name": "",
          "type": "string"
        }
      ],
      "stateMutability": "view",
      "type": "function"
    },
    {
      "inputs": [],
      "name": "totalSupply",
      "outputs": [
        {
          "internalType": "uint256",
          "name": "",
          "type": "uint256"
        }
      ],
      "stateMutability": "view",
      "type": "function"
    },
    {
      "inputs": [
        {
          "internalType": "address",
          "name": "from",
          "type": "address"
        },
        {
          "internalType": "address",
          "name": "to",
          "type": "address"
        },
        {
          "internalType": "uint256",
          "name": "tokenId",
          "type": "uint256"
        }
      ],
      "name": "transferFrom",
      "outputs": [],
      "stateMutability": "nonpayable",
      "type": "function"
    },
    {
      "inputs": [
        {
          "internalType": "bytes4",
          "name": "interfaceId",
          "type": "bytes4"
        }
      ],
      "name": "supportsInterface",
      "outputs": [
        {
          "internalType": "bool",
          "name": "",
          "type": "bool"
        }
      ],
      "stateMutability": "view",
      "type": "function"
    },
    {
      "inputs": [
        {
          "internalType": "uint256",
          "name": "tokenId",
          "type": "uint256"
        }
      ],
      "name": "tokenURI",
      "outputs": [
        {
          "internalType": "string",
          "name": "",
          "type": "string"
        }
      ],
      "stateMutability": "view",
      "type": "function"
    },
    {
      "inputs": [
        {
          "internalType": "uint256",
          "name": "tokenId",
          "type": "uint256"
        }
      ],
      "name": "creatorOf",
      "outputs": [
        {
          "internalType": "address",
          "name": "",
          "type": "address"
        }
      ],
      "stateMutability": "view",
      "type": "function"
    },
    {
      "inputs": [
        {
          "internalType": "string",
          "name": "_tokenURI",
          "type": "string"
        }
      ],
      "name": "createToken",
      "outputs": [],
      "stateMutability": "nonpayable",
      "type": "function"
    }
  ],
  "bytecode": "0x60806040523480156200001157600080fd5b506040518060400160405280600981526020017f4277696e64694e465400000000000000000000000000000000000000000000008152506040518060400160405280600981526020017f4277696e64694e46540000000000000000000000000000000000000000000000815250816000908051906020019062000096929190620000b8565b508060019080519060200190620000af929190620000b8565b505050620001cd565b828054620000c69062000168565b90600052602060002090601f016020900481019282620000ea576000855562000136565b82601f106200010557805160ff191683800117855562000136565b8280016001018555821562000136579182015b828111156200013557825182559160200191906001019062000118565b5b50905062000145919062000149565b5090565b5b80821115620001645760008160009055506001016200014a565b5090565b600060028204905060018216806200018157607f821691505b602082108114156200019857620001976200019e565b5b50919050565b7f4e487b7100000000000000000000000000000000000000000000000000000000600052602260045260246000fd5b61322880620001dd6000396000f3fe608060405234801561001057600080fd5b50600436106101215760003560e01c80634f6ccce7116100ad57806395d89b411161007157806395d89b4114610352578063a22cb46514610370578063b88d4fde1461038c578063c87b56dd146103a8578063e985e9c5146103d857610121565b80634f6ccce714610262578063589a1743146102925780636352211e146102c25780636c8b703f146102f257806370a082311461032257610121565b806318160ddd116100f457806318160ddd146101c057806323b872dd146101de5780632f745c59146101fa57806342842e0e1461022a57806345576f941461024657610121565b806301ffc9a71461012657806306fdde0314610156578063081812fc14610174578063095ea7b3146101a4575b600080fd5b610140600480360381019061013b919061230f565b610408565b60405161014d919061276c565b60405180910390f35b61015e61041a565b60405161016b9190612787565b60405180910390f35b61018e600480360381019061018991906123a2565b6104ac565b60405161019b9190612705565b60405180910390f35b6101be60048036038101906101b991906122d3565b610531565b005b6101c8610649565b6040516101d591906129c9565b60405180910390f35b6101f860048036038101906101f391906121cd565b610656565b005b610214600480360381019061020f91906122d3565b6106b6565b60405161022191906129c9565b60405180910390f35b610244600480360381019061023f91906121cd565b61075b565b005b610260600480360381019061025b9190612361565b61077b565b005b61027c600480360381019061027791906123a2565b610947565b60405161028991906129c9565b60405180910390f35b6102ac60048036038101906102a791906123a2565b6109de565b6040516102b99190612705565b60405180910390f35b6102dc60048036038101906102d791906123a2565b610a63565b6040516102e99190612705565b60405180910390f35b61030c600480360381019061030791906123a2565b610b15565b6040516103199190612787565b60405180910390f35b61033c60048036038101906103379190612168565b610bc1565b60405161034991906129c9565b60405180910390f35b61035a610c79565b6040516103679190612787565b60405180910390f35b61038a60048036038101906103859190612297565b610d0b565b005b6103a660048036038101906103a1919061221c565b610d21565b005b6103c260048036038101906103bd91906123a2565b610d83565b6040516103cf9190612787565b60405180910390f35b6103f260048036038101906103ed9190612191565b610e70565b6040516103ff919061276c565b60405180910390f35b600061041382610f04565b9050919050565b60606000805461042990612bee565b80601f016020809104026020016040519081016040528092919081815260200182805461045590612bee565b80156104a25780601f10610477576101008083540402835291602001916104a2565b820191906000526020600020905b81548152906001019060200180831161048557829003601f168201915b5050505050905090565b60006104b782610f7e565b6104f6576040517f08c379a00000000000000000000000000000000000000000000000000000000081526004016104ed90612909565b60405180910390fd5b6004600083815260200190815260200160002060009054906101000a900473ffffffffffffffffffffffffffffffffffffffff169050919050565b600061053c82610a63565b90508073ffffffffffffffffffffffffffffffffffffffff168373ffffffffffffffffffffffffffffffffffffffff1614156105ad576040517f08c379a00000000000000000000000000000000000000000000000000000000081526004016105a490612969565b60405180910390fd5b8073ffffffffffffffffffffffffffffffffffffffff166105cc610fea565b73ffffffffffffffffffffffffffffffffffffffff1614806105fb57506105fa816105f5610fea565b610e70565b5b61063a576040517f08c379a000000000000000000000000000000000000000000000000000000000815260040161063190612889565b60405180910390fd5b6106448383610ff2565b505050565b6000600880549050905090565b610667610661610fea565b826110ab565b6106a6576040517f08c379a000000000000000000000000000000000000000000000000000000000815260040161069d90612989565b60405180910390fd5b6106b1838383611189565b505050565b60006106c183610bc1565b8210610702576040517f08c379a00000000000000000000000000000000000000000000000000000000081526004016106f9906127a9565b60405180910390fd5b600660008473ffffffffffffffffffffffffffffffffffffffff1673ffffffffffffffffffffffffffffffffffffffff168152602001908152602001600020600083815260200190815260200160002054905092915050565b61077683838360405180602001604052806000815250610d21565b505050565b600b8160405161078b91906126ee565b908152602001604051809103902060009054906101000a900460ff16156107e7576040517f08c379a00000000000000000000000000000000000000000000000000000000081526004016107de90612869565b60405180910390fd5b600a81908060018154018082558091505060019003906000526020600020016000909190919091509080519060200190610822929190611f8c565b506000600a80549050905081600c60008381526020019081526020016000209080519060200190610854929190611f8c565b5033600d600083815260200190815260200160002060006101000a81548173ffffffffffffffffffffffffffffffffffffffff021916908373ffffffffffffffffffffffffffffffffffffffff1602179055506108b133826113e5565b6001600b836040516108c391906126ee565b908152602001604051809103902060006101000a81548160ff021916908315150217905550803373ffffffffffffffffffffffffffffffffffffffff163073ffffffffffffffffffffffffffffffffffffffff167ffde888083b38fe6deac8498d5daebda0d38d0d3e6167e434b633f955152766fa60405160405180910390a45050565b6000610951610649565b8210610992576040517f08c379a0000000000000000000000000000000000000000000000000000000008152600401610989906129a9565b60405180910390fd5b600882815481106109cc577f4e487b7100000000000000000000000000000000000000000000000000000000600052603260045260246000fd5b90600052602060002001549050919050565b60006109e982610f7e565b610a28576040517f08c379a0000000000000000000000000000000000000000000000000000000008152600401610a1f90612949565b60405180910390fd5b600d600083815260200190815260200160002060009054906101000a900473ffffffffffffffffffffffffffffffffffffffff169050919050565b6000806002600084815260200190815260200160002060009054906101000a900473ffffffffffffffffffffffffffffffffffffffff169050600073ffffffffffffffffffffffffffffffffffffffff168173ffffffffffffffffffffffffffffffffffffffff161415610b0c576040517f08c379a0000000000000000000000000000000000000000000000000000000008152600401610b03906128c9565b60405180910390fd5b80915050919050565b600a8181548110610b2557600080fd5b906000526020600020016000915090508054610b4090612bee565b80601f0160208091040260200160405190810160405280929190818152602001828054610b6c90612bee565b8015610bb95780601f10610b8e57610100808354040283529160200191610bb9565b820191906000526020600020905b815481529060010190602001808311610b9c57829003601f168201915b505050505081565b60008073ffffffffffffffffffffffffffffffffffffffff168273ffffffffffffffffffffffffffffffffffffffff161415610c32576040517f08c379a0000000000000000000000000000000000000000000000000000000008152600401610c29906128a9565b60405180910390fd5b600360008373ffffffffffffffffffffffffffffffffffffffff1673ffffffffffffffffffffffffffffffffffffffff168152602001908152602001600020549050919050565b606060018054610c8890612bee565b80601f0160208091040260200160405190810160405280929190818152602001828054610cb490612bee565b8015610d015780601f10610cd657610100808354040283529160200191610d01565b820191906000526020600020905b815481529060010190602001808311610ce457829003601f168201915b5050505050905090565b610d1d610d16610fea565b8383611403565b5050565b610d32610d2c610fea565b836110ab565b610d71576040517f08c379a0000000000000000000000000000000000000000000000000000000008152600401610d6890612989565b60405180910390fd5b610d7d84848484611570565b50505050565b6060610d8e82610f7e565b610dcd576040517f08c379a0000000000000000000000000000000000000000000000000000000008152600401610dc490612949565b60405180910390fd5b600c60008381526020019081526020016000208054610deb90612bee565b80601f0160208091040260200160405190810160405280929190818152602001828054610e1790612bee565b8015610e645780601f10610e3957610100808354040283529160200191610e64565b820191906000526020600020905b815481529060010190602001808311610e4757829003601f168201915b50505050509050919050565b6000600560008473ffffffffffffffffffffffffffffffffffffffff1673ffffffffffffffffffffffffffffffffffffffff16815260200190815260200160002060008373ffffffffffffffffffffffffffffffffffffffff1673ffffffffffffffffffffffffffffffffffffffff16815260200190815260200160002060009054906101000a900460ff16905092915050565b60007f780e9d63000000000000000000000000000000000000000000000000000000007bffffffffffffffffffffffffffffffffffffffffffffffffffffffff1916827bffffffffffffffffffffffffffffffffffffffffffffffffffffffff19161480610f775750610f76826115cc565b5b9050919050565b60008073ffffffffffffffffffffffffffffffffffffffff166002600084815260200190815260200160002060009054906101000a900473ffffffffffffffffffffffffffffffffffffffff1673ffffffffffffffffffffffffffffffffffffffff1614159050919050565b600033905090565b816004600083815260200190815260200160002060006101000a81548173ffffffffffffffffffffffffffffffffffffffff021916908373ffffffffffffffffffffffffffffffffffffffff160217905550808273ffffffffffffffffffffffffffffffffffffffff1661106583610a63565b73ffffffffffffffffffffffffffffffffffffffff167f8c5be1e5ebec7d5bd14f71427d1e84f3dd0314c0f7b2291e5b200ac8c7c3b92560405160405180910390a45050565b60006110b682610f7e565b6110f5576040517f08c379a00000000000000000000000000000000000000000000000000000000081526004016110ec90612849565b60405180910390fd5b600061110083610a63565b90508073ffffffffffffffffffffffffffffffffffffffff168473ffffffffffffffffffffffffffffffffffffffff16148061116f57508373ffffffffffffffffffffffffffffffffffffffff16611157846104ac565b73ffffffffffffffffffffffffffffffffffffffff16145b80611180575061117f8185610e70565b5b91505092915050565b8273ffffffffffffffffffffffffffffffffffffffff166111a982610a63565b73ffffffffffffffffffffffffffffffffffffffff16146111ff576040517f08c379a00000000000000000000000000000000000000000000000000000000081526004016111f690612929565b60405180910390fd5b600073ffffffffffffffffffffffffffffffffffffffff168273ffffffffffffffffffffffffffffffffffffffff16141561126f576040517f08c379a000000000000000000000000000000000000000000000000000000000815260040161126690612809565b60405180910390fd5b61127a8383836116ae565b611285600082610ff2565b6001600360008573ffffffffffffffffffffffffffffffffffffffff1673ffffffffffffffffffffffffffffffffffffffff16815260200190815260200160002060008282546112d59190612b04565b925050819055506001600360008473ffffffffffffffffffffffffffffffffffffffff1673ffffffffffffffffffffffffffffffffffffffff168152602001908152602001600020600082825461132c9190612aae565b92505081905550816002600083815260200190815260200160002060006101000a81548173ffffffffffffffffffffffffffffffffffffffff021916908373ffffffffffffffffffffffffffffffffffffffff160217905550808273ffffffffffffffffffffffffffffffffffffffff168473ffffffffffffffffffffffffffffffffffffffff167fddf252ad1be2c89b69c2b068fc378daa952ba7f163c4a11628f55a4df523b3ef60405160405180910390a4505050565b6113ff8282604051806020016040528060008152506116be565b5050565b8173ffffffffffffffffffffffffffffffffffffffff168373ffffffffffffffffffffffffffffffffffffffff161415611472576040517f08c379a000000000000000000000000000000000000000000000000000000000815260040161146990612829565b60405180910390fd5b80600560008573ffffffffffffffffffffffffffffffffffffffff1673ffffffffffffffffffffffffffffffffffffffff16815260200190815260200160002060008473ffffffffffffffffffffffffffffffffffffffff1673ffffffffffffffffffffffffffffffffffffffff16815260200190815260200160002060006101000a81548160ff0219169083151502179055508173ffffffffffffffffffffffffffffffffffffffff168373ffffffffffffffffffffffffffffffffffffffff167f17307eab39ab6107e8899845ad3d59bd9653f200f220920489ca2b5937696c3183604051611563919061276c565b60405180910390a3505050565b61157b848484611189565b61158784848484611719565b6115c6576040517f08c379a00000000000000000000000000000000000000000000000000000000081526004016115bd906127c9565b60405180910390fd5b50505050565b60007f80ac58cd000000000000000000000000000000000000000000000000000000007bffffffffffffffffffffffffffffffffffffffffffffffffffffffff1916827bffffffffffffffffffffffffffffffffffffffffffffffffffffffff1916148061169757507f5b5e139f000000000000000000000000000000000000000000000000000000007bffffffffffffffffffffffffffffffffffffffffffffffffffffffff1916827bffffffffffffffffffffffffffffffffffffffffffffffffffffffff1916145b806116a757506116a6826118b0565b5b9050919050565b6116b983838361191a565b505050565b6116c88383611a2e565b6116d56000848484611719565b611714576040517f08c379a000000000000000000000000000000000000000000000000000000000815260040161170b906127c9565b60405180910390fd5b505050565b600061173a8473ffffffffffffffffffffffffffffffffffffffff16611bfc565b156118a3578373ffffffffffffffffffffffffffffffffffffffff1663150b7a02611763610fea565b8786866040518563ffffffff1660e01b81526004016117859493929190612720565b602060405180830381600087803b15801561179f57600080fd5b505af19250505080156117d057506040513d601f19601f820116820180604052508101906117cd9190612338565b60015b611853573d8060008114611800576040519150601f19603f3d011682016040523d82523d6000602084013e611805565b606091505b5060008151141561184b576040517f08c379a0000000000000000000000000000000000000000000000000000000008152600401611842906127c9565b60405180910390fd5b805181602001fd5b63150b7a0260e01b7bffffffffffffffffffffffffffffffffffffffffffffffffffffffff1916817bffffffffffffffffffffffffffffffffffffffffffffffffffffffff1916149150506118a8565b600190505b949350505050565b60007f01ffc9a7000000000000000000000000000000000000000000000000000000007bffffffffffffffffffffffffffffffffffffffffffffffffffffffff1916827bffffffffffffffffffffffffffffffffffffffffffffffffffffffff1916149050919050565b611925838383611c0f565b600073ffffffffffffffffffffffffffffffffffffffff168373ffffffffffffffffffffffffffffffffffffffff1614156119685761196381611c14565b6119a7565b8173ffffffffffffffffffffffffffffffffffffffff168373ffffffffffffffffffffffffffffffffffffffff16146119a6576119a58382611c5d565b5b5b600073ffffffffffffffffffffffffffffffffffffffff168273ffffffffffffffffffffffffffffffffffffffff1614156119ea576119e581611dca565b611a29565b8273ffffffffffffffffffffffffffffffffffffffff168273ffffffffffffffffffffffffffffffffffffffff1614611a2857611a278282611f0d565b5b5b505050565b600073ffffffffffffffffffffffffffffffffffffffff168273ffffffffffffffffffffffffffffffffffffffff161415611a9e576040517f08c379a0000000000000000000000000000000000000000000000000000000008152600401611a95906128e9565b60405180910390fd5b611aa781610f7e565b15611ae7576040517f08c379a0000000000000000000000000000000000000000000000000000000008152600401611ade906127e9565b60405180910390fd5b611af3600083836116ae565b6001600360008473ffffffffffffffffffffffffffffffffffffffff1673ffffffffffffffffffffffffffffffffffffffff1681526020019081526020016000206000828254611b439190612aae565b92505081905550816002600083815260200190815260200160002060006101000a81548173ffffffffffffffffffffffffffffffffffffffff021916908373ffffffffffffffffffffffffffffffffffffffff160217905550808273ffffffffffffffffffffffffffffffffffffffff16600073ffffffffffffffffffffffffffffffffffffffff167fddf252ad1be2c89b69c2b068fc378daa952ba7f163c4a11628f55a4df523b3ef60405160405180910390a45050565b600080823b905060008111915050919050565b505050565b6008805490506009600083815260200190815260200160002081905550600881908060018154018082558091505060019003906000526020600020016000909190919091505550565b60006001611c6a84610bc1565b611c749190612b04565b9050600060076000848152602001908152602001600020549050818114611d59576000600660008673ffffffffffffffffffffffffffffffffffffffff1673ffffffffffffffffffffffffffffffffffffffff168152602001908152602001600020600084815260200190815260200160002054905080600660008773ffffffffffffffffffffffffffffffffffffffff1673ffffffffffffffffffffffffffffffffffffffff168152602001908152602001600020600084815260200190815260200160002081905550816007600083815260200190815260200160002081905550505b6007600084815260200190815260200160002060009055600660008573ffffffffffffffffffffffffffffffffffffffff1673ffffffffffffffffffffffffffffffffffffffff16815260200190815260200160002060008381526020019081526020016000206000905550505050565b60006001600880549050611dde9190612b04565b9050600060096000848152602001908152602001600020549050600060088381548110611e34577f4e487b7100000000000000000000000000000000000000000000000000000000600052603260045260246000fd5b906000526020600020015490508060088381548110611e7c577f4e487b7100000000000000000000000000000000000000000000000000000000600052603260045260246000fd5b906000526020600020018190555081600960008381526020019081526020016000208190555060096000858152602001908152602001600020600090556008805480611ef1577f4e487b7100000000000000000000000000000000000000000000000000000000600052603160045260246000fd5b6001900381819060005260206000200160009055905550505050565b6000611f1883610bc1565b905081600660008573ffffffffffffffffffffffffffffffffffffffff1673ffffffffffffffffffffffffffffffffffffffff168152602001908152602001600020600083815260200190815260200160002081905550806007600084815260200190815260200160002081905550505050565b828054611f9890612bee565b90600052602060002090601f016020900481019282611fba5760008555612001565b82601f10611fd357805160ff1916838001178555612001565b82800160010185558215612001579182015b82811115612000578251825591602001919060010190611fe5565b5b50905061200e9190612012565b5090565b5b8082111561202b576000816000905550600101612013565b5090565b600061204261203d84612a09565b6129e4565b90508281526020810184848401111561205a57600080fd5b612065848285612bac565b509392505050565b600061208061207b84612a3a565b6129e4565b90508281526020810184848401111561209857600080fd5b6120a3848285612bac565b509392505050565b6000813590506120ba81613196565b92915050565b6000813590506120cf816131ad565b92915050565b6000813590506120e4816131c4565b92915050565b6000815190506120f9816131c4565b92915050565b600082601f83011261211057600080fd5b813561212084826020860161202f565b91505092915050565b600082601f83011261213a57600080fd5b813561214a84826020860161206d565b91505092915050565b600081359050612162816131db565b92915050565b60006020828403121561217a57600080fd5b6000612188848285016120ab565b91505092915050565b600080604083850312156121a457600080fd5b60006121b2858286016120ab565b92505060206121c3858286016120ab565b9150509250929050565b6000806000606084860312156121e257600080fd5b60006121f0868287016120ab565b9350506020612201868287016120ab565b925050604061221286828701612153565b9150509250925092565b6000806000806080858703121561223257600080fd5b6000612240878288016120ab565b9450506020612251878288016120ab565b935050604061226287828801612153565b925050606085013567ffffffffffffffff81111561227f57600080fd5b61228b878288016120ff565b91505092959194509250565b600080604083850312156122aa57600080fd5b60006122b8858286016120ab565b92505060206122c9858286016120c0565b9150509250929050565b600080604083850312156122e657600080fd5b60006122f4858286016120ab565b925050602061230585828601612153565b9150509250929050565b60006020828403121561232157600080fd5b600061232f848285016120d5565b91505092915050565b60006020828403121561234a57600080fd5b6000612358848285016120ea565b91505092915050565b60006020828403121561237357600080fd5b600082013567ffffffffffffffff81111561238d57600080fd5b61239984828501612129565b91505092915050565b6000602082840312156123b457600080fd5b60006123c284828501612153565b91505092915050565b6123d481612b38565b82525050565b6123e381612b4a565b82525050565b60006123f482612a6b565b6123fe8185612a81565b935061240e818560208601612bbb565b61241781612cde565b840191505092915050565b600061242d82612a76565b6124378185612a92565b9350612447818560208601612bbb565b61245081612cde565b840191505092915050565b600061246682612a76565b6124708185612aa3565b9350612480818560208601612bbb565b80840191505092915050565b6000612499602b83612a92565b91506124a482612cef565b604082019050919050565b60006124bc603283612a92565b91506124c782612d3e565b604082019050919050565b60006124df601c83612a92565b91506124ea82612d8d565b602082019050919050565b6000612502602483612a92565b915061250d82612db6565b604082019050919050565b6000612525601983612a92565b915061253082612e05565b602082019050919050565b6000612548602c83612a92565b915061255382612e2e565b604082019050919050565b600061256b601e83612a92565b915061257682612e7d565b602082019050919050565b600061258e603883612a92565b915061259982612ea6565b604082019050919050565b60006125b1602a83612a92565b91506125bc82612ef5565b604082019050919050565b60006125d4602983612a92565b91506125df82612f44565b604082019050919050565b60006125f7602083612a92565b915061260282612f93565b602082019050919050565b600061261a602c83612a92565b915061262582612fbc565b604082019050919050565b600061263d602983612a92565b91506126488261300b565b604082019050919050565b6000612660602f83612a92565b915061266b8261305a565b604082019050919050565b6000612683602183612a92565b915061268e826130a9565b604082019050919050565b60006126a6603183612a92565b91506126b1826130f8565b604082019050919050565b60006126c9602c83612a92565b91506126d482613147565b604082019050919050565b6126e881612ba2565b82525050565b60006126fa828461245b565b915081905092915050565b600060208201905061271a60008301846123cb565b92915050565b600060808201905061273560008301876123cb565b61274260208301866123cb565b61274f60408301856126df565b818103606083015261276181846123e9565b905095945050505050565b600060208201905061278160008301846123da565b92915050565b600060208201905081810360008301526127a18184612422565b905092915050565b600060208201905081810360008301526127c28161248c565b9050919050565b600060208201905081810360008301526127e2816124af565b9050919050565b60006020820190508181036000830152612802816124d2565b9050919050565b60006020820190508181036000830152612822816124f5565b9050919050565b6000602082019050818103600083015261284281612518565b9050919050565b600060208201905081810360008301526128628161253b565b9050919050565b600060208201905081810360008301526128828161255e565b9050919050565b600060208201905081810360008301526128a281612581565b9050919050565b600060208201905081810360008301526128c2816125a4565b9050919050565b600060208201905081810360008301526128e2816125c7565b9050919050565b60006020820190508181036000830152612902816125ea565b9050919050565b600060208201905081810360008301526129228161260d565b9050919050565b6000602082019050818103600083015261294281612630565b9050919050565b6000602082019050818103600083015261296281612653565b9050919050565b6000602082019050818103600083015261298281612676565b9050919050565b600060208201905081810360008301526129a281612699565b9050919050565b600060208201905081810360008301526129c2816126bc565b9050919050565b60006020820190506129de60008301846126df565b92915050565b60006129ee6129ff565b90506129fa8282612c20565b919050565b6000604051905090565b600067ffffffffffffffff821115612a2457612a23612caf565b5b612a2d82612cde565b9050602081019050919050565b600067ffffffffffffffff821115612a5557612a54612caf565b5b612a5e82612cde565b9050602081019050919050565b600081519050919050565b600081519050919050565b600082825260208201905092915050565b600082825260208201905092915050565b600081905092915050565b6000612ab982612ba2565b9150612ac483612ba2565b9250827fffffffffffffffffffffffffffffffffffffffffffffffffffffffffffffffff03821115612af957612af8612c51565b5b828201905092915050565b6000612b0f82612ba2565b9150612b1a83612ba2565b925082821015612b2d57612b2c612c51565b5b828203905092915050565b6000612b4382612b82565b9050919050565b60008115159050919050565b60007fffffffff0000000000000000000000000000000000000000000000000000000082169050919050565b600073ffffffffffffffffffffffffffffffffffffffff82169050919050565b6000819050919050565b82818337600083830152505050565b60005b83811015612bd9578082015181840152602081019050612bbe565b83811115612be8576000848401525b50505050565b60006002820490506001821680612c0657607f821691505b60208210811415612c1a57612c19612c80565b5b50919050565b612c2982612cde565b810181811067ffffffffffffffff82111715612c4857612c47612caf565b5b80604052505050565b7f4e487b7100000000000000000000000000000000000000000000000000000000600052601160045260246000fd5b7f4e487b7100000000000000000000000000000000000000000000000000000000600052602260045260246000fd5b7f4e487b7100000000000000000000000000000000000000000000000000000000600052604160045260246000fd5b6000601f19601f8301169050919050565b7f455243373231456e756d657261626c653a206f776e657220696e646578206f7560008201527f74206f6620626f756e6473000000000000000000000000000000000000000000602082015250565b7f4552433732313a207472616e7366657220746f206e6f6e20455243373231526560008201527f63656976657220696d706c656d656e7465720000000000000000000000000000602082015250565b7f4552433732313a20746f6b656e20616c7265616479206d696e74656400000000600082015250565b7f4552433732313a207472616e7366657220746f20746865207a65726f2061646460008201527f7265737300000000000000000000000000000000000000000000000000000000602082015250565b7f4552433732313a20617070726f766520746f2063616c6c657200000000000000600082015250565b7f4552433732313a206f70657261746f7220717565727920666f72206e6f6e657860008201527f697374656e7420746f6b656e0000000000000000000000000000000000000000602082015250565b7f54686520746f6b656e205552492073686f756c6420626520756e697175650000600082015250565b7f4552433732313a20617070726f76652063616c6c6572206973206e6f74206f7760008201527f6e6572206e6f7220617070726f76656420666f7220616c6c0000000000000000602082015250565b7f4552433732313a2062616c616e636520717565727920666f7220746865207a6560008201527f726f206164647265737300000000000000000000000000000000000000000000602082015250565b7f4552433732313a206f776e657220717565727920666f72206e6f6e657869737460008201527f656e7420746f6b656e0000000000000000000000000000000000000000000000602082015250565b7f4552433732313a206d696e7420746f20746865207a65726f2061646472657373600082015250565b7f4552433732313a20617070726f76656420717565727920666f72206e6f6e657860008201527f697374656e7420746f6b656e0000000000000000000000000000000000000000602082015250565b7f4552433732313a207472616e73666572206f6620746f6b656e2074686174206960008201527f73206e6f74206f776e0000000000000000000000000000000000000000000000602082015250565b7f4552433732314d657461646174613a2055524920717565727920666f72206e6f60008201527f6e6578697374656e7420746f6b656e0000000000000000000000000000000000602082015250565b7f4552433732313a20617070726f76616c20746f2063757272656e74206f776e6560008201527f7200000000000000000000000000000000000000000000000000000000000000602082015250565b7f4552433732313a207472616e736665722063616c6c6572206973206e6f74206f60008201527f776e6572206e6f7220617070726f766564000000000000000000000000000000602082015250565b7f455243373231456e756d657261626c653a20676c6f62616c20696e646578206f60008201527f7574206f6620626f756e64730000000000000000000000000000000000000000602082015250565b61319f81612b38565b81146131aa57600080fd5b50565b6131b681612b4a565b81146131c157600080fd5b50565b6131cd81612b56565b81146131d857600080fd5b50565b6131e481612ba2565b81146131ef57600080fd5b5056fea2646970667358221220606c866955d352359eba683a0f6410aea753d5062be03c8b6f7a32dc2dfd691264736f6c63430008040033",
  "immutableReferences": {},
  "source": "// SPDX-License-Identifier: MIT\r\npragma solidity ^0.8.0;\r\n\r\nimport \"@openzeppelin/contracts/token/ERC721/ERC721.sol\";\r\nimport \"@openzeppelin/contracts/token/ERC721/extensions/ERC721Enumerable.sol\";\r\n\r\ncontract NFTCollection is ERC721, ERC721Enumerable {\r\n    string[] public tokenURIs;\r\n    mapping(string => bool) _tokenURIExists;\r\n    mapping(uint256 => string) _tokenIdToTokenURI;\r\n    mapping(uint256 => address) _creators;\r\n\r\n    event TokenCreated(\r\n        address indexed contractAddress,\r\n        address indexed creator,\r\n        uint256 indexed tokenId\r\n    );\r\n\r\n    constructor() \r\n        ERC721(\"BwindiNFT\", \"BwindiNFT\")\r\n    {\r\n    }\r\n\r\n    function _beforeTokenTransfer(address from, address to, uint256 tokenId) internal override(ERC721, ERC721Enumerable) {\r\n        super._beforeTokenTransfer(from, to, tokenId);\r\n    }\r\n\r\n    function supportsInterface(bytes4 interfaceId) public view override(ERC721, ERC721Enumerable) returns (bool) {\r\n        return super.supportsInterface(interfaceId);\r\n    }\r\n\r\n    function tokenURI(uint256 tokenId) public override view returns (string memory) {\r\n        require(_exists(tokenId), 'ERC721Metadata: URI query for nonexistent token');\r\n        return _tokenIdToTokenURI[tokenId];\r\n    }\r\n\r\n    function creatorOf(uint256 tokenId) public view returns (address) {\r\n        require(_exists(tokenId), 'ERC721Metadata: URI query for nonexistent token');\r\n        return _creators[tokenId];\r\n    }\r\n\r\n    function createToken( string memory _tokenURI ) public {\r\n        require(!_tokenURIExists[_tokenURI], 'The token URI should be unique');\r\n        tokenURIs.push(_tokenURI);\r\n        uint256 _id = tokenURIs.length;\r\n        _tokenIdToTokenURI[_id] = _tokenURI;\r\n        _creators[_id] = msg.sender;\r\n        _safeMint(msg.sender, _id);\r\n        _tokenURIExists[_tokenURI] = true;\r\n        emit TokenCreated(address(this), msg.sender, _id);\r\n    }\r\n}",
  "sourcePath": "E:\\2.Dev\\Clients\\US -- Toufik\\bwindi_frontend-master\\src\\contracts\\NFTCollection.sol",
  "compiler": {
    "name": "solc",
    "version": "0.8.4+commit.c7e474f2.Emscripten.clang"
  },
  "schemaVersion": "3.4.4",
  "updatedAt": "2022-02-05T15:43:39.596Z",
  "devdoc": {
    "kind": "dev",
    "methods": {
      "approve(address,uint256)": {
        "details": "See {IERC721-approve}."
      },
      "balanceOf(address)": {
        "details": "See {IERC721-balanceOf}."
      },
      "getApproved(uint256)": {
        "details": "See {IERC721-getApproved}."
      },
      "isApprovedForAll(address,address)": {
        "details": "See {IERC721-isApprovedForAll}."
      },
      "name()": {
        "details": "See {IERC721Metadata-name}."
      },
      "ownerOf(uint256)": {
        "details": "See {IERC721-ownerOf}."
      },
      "safeTransferFrom(address,address,uint256)": {
        "details": "See {IERC721-safeTransferFrom}."
      },
      "safeTransferFrom(address,address,uint256,bytes)": {
        "details": "See {IERC721-safeTransferFrom}."
      },
      "setApprovalForAll(address,bool)": {
        "details": "See {IERC721-setApprovalForAll}."
      },
      "symbol()": {
        "details": "See {IERC721Metadata-symbol}."
      },
      "tokenByIndex(uint256)": {
        "details": "See {IERC721Enumerable-tokenByIndex}."
      },
      "tokenOfOwnerByIndex(address,uint256)": {
        "details": "See {IERC721Enumerable-tokenOfOwnerByIndex}."
      },
      "tokenURI(uint256)": {
        "details": "See {IERC721Metadata-tokenURI}."
      },
      "totalSupply()": {
        "details": "See {IERC721Enumerable-totalSupply}."
      },
      "transferFrom(address,address,uint256)": {
        "details": "See {IERC721-transferFrom}."
      }
    },
    "version": 1
  },
  "userdoc": {
    "kind": "user",
    "methods": {},
    "version": 1
  }
}