{
  "contractName": "NFTMarketplace",
  "abi": [
    {
      "anonymous": false,
      "inputs": [
        {
          "indexed": false,
          "internalType": "address",
          "name": "_nftContractAddress",
          "type": "address"
        },
        {
          "indexed": false,
          "internalType": "uint256",
          "name": "_tokenId",
          "type": "uint256"
        },
        {
          "indexed": false,
          "internalType": "uint32",
          "name": "_bidIncreasePercentage",
          "type": "uint32"
        },
        {
          "indexed": false,
          "internalType": "uint256",
          "name": "_auctionBidPeriod",
          "type": "uint256"
        },
        {
          "indexed": false,
          "internalType": "uint256",
          "name": "_minPrice",
          "type": "uint256"
        },
        {
          "indexed": false,
          "internalType": "uint256",
          "name": "_buyNowPrice",
          "type": "uint256"
        },
        {
          "indexed": false,
          "internalType": "address",
          "name": "_ERC20Token",
          "type": "address"
        }
      ],
      "name": "PutOnSale",
      "type": "event"
    },
    {
      "inputs": [
        {
          "internalType": "address",
          "name": "",
          "type": "address"
        },
        {
          "internalType": "uint256",
          "name": "",
          "type": "uint256"
        }
      ],
      "name": "nftContractSales",
      "outputs": [
        {
          "internalType": "uint32",
          "name": "bidIncreasePercentage",
          "type": "uint32"
        },
        {
          "internalType": "uint256",
          "name": "auctionBidPeriod",
          "type": "uint256"
        },
        {
          "internalType": "uint256",
          "name": "auctionEnd",
          "type": "uint256"
        },
        {
          "internalType": "uint256",
          "name": "minPrice",
          "type": "uint256"
        },
        {
          "internalType": "uint256",
          "name": "buyNowPrice",
          "type": "uint256"
        },
        {
          "internalType": "address",
          "name": "nftSeller",
          "type": "address"
        },
        {
          "internalType": "uint256",
          "name": "nftHighestBid",
          "type": "uint256"
        },
        {
          "internalType": "address",
          "name": "nftHighestBidder",
          "type": "address"
        },
        {
          "internalType": "address",
          "name": "whitelistedBuyer",
          "type": "address"
        },
        {
          "internalType": "address",
          "name": "nftRecipient",
          "type": "address"
        },
        {
          "internalType": "address",
          "name": "ERC20Token",
          "type": "address"
        }
      ],
      "stateMutability": "view",
      "type": "function"
    },
    {
      "inputs": [
        {
          "internalType": "address",
          "name": "_nftContractAddress",
          "type": "address"
        },
        {
          "internalType": "uint256",
          "name": "_tokenId",
          "type": "uint256"
        },
        {
          "internalType": "uint32",
          "name": "_bidIncreasePercentage",
          "type": "uint32"
        },
        {
          "internalType": "uint256",
          "name": "_auctionBidPeriod",
          "type": "uint256"
        },
        {
          "internalType": "uint256",
          "name": "_minPrice",
          "type": "uint256"
        },
        {
          "internalType": "uint256",
          "name": "_buyNowPrice",
          "type": "uint256"
        },
        {
          "internalType": "address",
          "name": "_ERC20Token",
          "type": "address"
        }
      ],
      "name": "putOnSale",
      "outputs": [],
      "stateMutability": "nonpayable",
      "type": "function"
    },
    {
      "inputs": [
        {
          "internalType": "address",
          "name": "_nftContractAddress",
          "type": "address"
        },
        {
          "internalType": "uint256",
          "name": "_tokenId",
          "type": "uint256"
        }
      ],
      "name": "cancelSale",
      "outputs": [],
      "stateMutability": "nonpayable",
      "type": "function"
    },
    {
      "inputs": [
        {
          "internalType": "address",
          "name": "_nftContractAddress",
          "type": "address"
        },
        {
          "internalType": "uint256",
          "name": "_tokenId",
          "type": "uint256"
        }
      ],
      "name": "buyFromSale",
      "outputs": [],
      "stateMutability": "payable",
      "type": "function"
    },
    {
      "inputs": [
        {
          "internalType": "address",
          "name": "_nftContractAddress",
          "type": "address"
        },
        {
          "internalType": "uint256",
          "name": "_tokenId",
          "type": "uint256"
        },
        {
          "internalType": "uint256",
          "name": "_price",
          "type": "uint256"
        }
      ],
      "name": "makeBid",
      "outputs": [],
      "stateMutability": "payable",
      "type": "function"
    }
  ],
  "bytecode": "0x608060405234801561001057600080fd5b5061164e806100206000396000f3fe60806040526004361061004a5760003560e01c806316f3a95b1461004f5780631bdae6f1146100785780631c4fa836146100945780632a780497146100bd57806357a07ee914610104575b600080fd5b34801561005b57600080fd5b5061007660048036038101906100719190610d83565b610120565b005b610092600480360381019061008d9190610dbf565b610214565b005b3480156100a057600080fd5b506100bb60048036038101906100b69190610e0e565b6104e3565b005b3480156100c957600080fd5b506100e460048036038101906100df9190610d83565b6107d3565b6040516100fb9b9a999897969594939291906111f5565b60405180910390f35b61011e60048036038101906101199190610d83565b6108ea565b005b60008060008473ffffffffffffffffffffffffffffffffffffffff1673ffffffffffffffffffffffffffffffffffffffff168152602001908152602001600020600083815260200190815260200160002090503373ffffffffffffffffffffffffffffffffffffffff168160050160009054906101000a900473ffffffffffffffffffffffffffffffffffffffff1673ffffffffffffffffffffffffffffffffffffffff1614610205576040517f08c379a00000000000000000000000000000000000000000000000000000000081526004016101fc906110ba565b60405180910390fd5b61020f8383610b05565b505050565b60008060008573ffffffffffffffffffffffffffffffffffffffff1673ffffffffffffffffffffffffffffffffffffffff168152602001908152602001600020600084815260200190815260200160002090508060050160009054906101000a900473ffffffffffffffffffffffffffffffffffffffff1673ffffffffffffffffffffffffffffffffffffffff163373ffffffffffffffffffffffffffffffffffffffff1614156102fa576040517f08c379a00000000000000000000000000000000000000000000000000000000081526004016102f19061111a565b60405180910390fd5b600081600401541180156103115750806004015482145b5061031c8484610bbf565b156103d1578060030154821015610368576040517f08c379a000000000000000000000000000000000000000000000000000000000815260040161035f9061113a565b60405180910390fd5b42816001015461037891906112b1565b8160020181905550818160060181905550338160070160006101000a81548173ffffffffffffffffffffffffffffffffffffffff021916908373ffffffffffffffffffffffffffffffffffffffff1602179055506104dd565b8060020154421115610418576040517f08c379a000000000000000000000000000000000000000000000000000000000815260040161040f906110fa565b60405180910390fd5b818160000160009054906101000a900463ffffffff16606461043a9190611307565b63ffffffff16826006015461044f9190611341565b1115610490576040517f08c379a00000000000000000000000000000000000000000000000000000000081526004016104879061119a565b60405180910390fd5b818160060181905550338160070160006101000a81548173ffffffffffffffffffffffffffffffffffffffff021916908373ffffffffffffffffffffffffffffffffffffffff1602179055505b50505050565b600087905060008060008a73ffffffffffffffffffffffffffffffffffffffff1673ffffffffffffffffffffffffffffffffffffffff168152602001908152602001600020600089815260200190815260200160002090503373ffffffffffffffffffffffffffffffffffffffff168273ffffffffffffffffffffffffffffffffffffffff16636352211e8a6040518263ffffffff1660e01b815260040161058b91906111da565b60206040518083038186803b1580156105a357600080fd5b505afa1580156105b7573d6000803e3d6000fd5b505050506040513d601f19601f820116820180604052508101906105db9190610d5a565b73ffffffffffffffffffffffffffffffffffffffff1614610631576040517f08c379a00000000000000000000000000000000000000000000000000000000081526004016106289061115a565b60405180910390fd5b600073ffffffffffffffffffffffffffffffffffffffff168160050160009054906101000a900473ffffffffffffffffffffffffffffffffffffffff1673ffffffffffffffffffffffffffffffffffffffff16146106c4576040517f08c379a00000000000000000000000000000000000000000000000000000000081526004016106bb906111ba565b60405180910390fd5b6106d389898989898989610c28565b338160050160006101000a81548173ffffffffffffffffffffffffffffffffffffffff021916908373ffffffffffffffffffffffffffffffffffffffff1602179055508173ffffffffffffffffffffffffffffffffffffffff166323b872dd33308b6040518463ffffffff1660e01b815260040161075393929190611014565b600060405180830381600087803b15801561076d57600080fd5b505af1158015610781573d6000803e3d6000fd5b505050507fc6bd2aaf6c1c3a84099b9751d83a7b45ca4488b8311d7348c85b966fbd3cd44b898989898989896040516107c0979695949392919061104b565b60405180910390a1505050505050505050565b6000602052816000526040600020602052806000526040600020600091509150508060000160009054906101000a900463ffffffff16908060010154908060020154908060030154908060040154908060050160009054906101000a900473ffffffffffffffffffffffffffffffffffffffff16908060060154908060070160009054906101000a900473ffffffffffffffffffffffffffffffffffffffff16908060080160009054906101000a900473ffffffffffffffffffffffffffffffffffffffff16908060090160009054906101000a900473ffffffffffffffffffffffffffffffffffffffff169080600a0160009054906101000a900473ffffffffffffffffffffffffffffffffffffffff1690508b565b60008060008473ffffffffffffffffffffffffffffffffffffffff1673ffffffffffffffffffffffffffffffffffffffff16815260200190815260200160002060008381526020019081526020016000209050600083905081600401543414610988576040517f08c379a000000000000000000000000000000000000000000000000000000000815260040161097f9061117a565b60405180910390fd5b8160050160009054906101000a900473ffffffffffffffffffffffffffffffffffffffff1673ffffffffffffffffffffffffffffffffffffffff163373ffffffffffffffffffffffffffffffffffffffff161415610a1b576040517f08c379a0000000000000000000000000000000000000000000000000000000008152600401610a12906110da565b60405180910390fd5b8160050160009054906101000a900473ffffffffffffffffffffffffffffffffffffffff1673ffffffffffffffffffffffffffffffffffffffff166108fc349081150290604051600060405180830381858888f19350505050158015610a85573d6000803e3d6000fd5b50610a908484610b05565b8073ffffffffffffffffffffffffffffffffffffffff166323b872dd3033866040518463ffffffff1660e01b8152600401610acd93929190611014565b600060405180830381600087803b158015610ae757600080fd5b505af1158015610afb573d6000803e3d6000fd5b5050505050505050565b60008060008473ffffffffffffffffffffffffffffffffffffffff1673ffffffffffffffffffffffffffffffffffffffff1681526020019081526020016000206000838152602001908152602001600020905060008160050160006101000a81548173ffffffffffffffffffffffffffffffffffffffff021916908373ffffffffffffffffffffffffffffffffffffffff160217905550600081600301819055506000816004018190555060008160010181905550505050565b6000806000808573ffffffffffffffffffffffffffffffffffffffff1673ffffffffffffffffffffffffffffffffffffffff1681526020019081526020016000206000848152602001908152602001600020905080600301548160060154101591505092915050565b60008060008973ffffffffffffffffffffffffffffffffffffffff1673ffffffffffffffffffffffffffffffffffffffff16815260200190815260200160002060008881526020019081526020016000209050858160000160006101000a81548163ffffffff021916908363ffffffff1602179055508481600101819055508381600301819055508281600401819055508181600a0160006101000a81548173ffffffffffffffffffffffffffffffffffffffff021916908373ffffffffffffffffffffffffffffffffffffffff1602179055505050505050505050565b600081359050610d15816115d3565b92915050565b600081519050610d2a816115d3565b92915050565b600081359050610d3f816115ea565b92915050565b600081359050610d5481611601565b92915050565b600060208284031215610d6c57600080fd5b6000610d7a84828501610d1b565b91505092915050565b60008060408385031215610d9657600080fd5b6000610da485828601610d06565b9250506020610db585828601610d30565b9150509250929050565b600080600060608486031215610dd457600080fd5b6000610de286828701610d06565b9350506020610df386828701610d30565b9250506040610e0486828701610d30565b9150509250925092565b600080600080600080600060e0888a031215610e2957600080fd5b6000610e378a828b01610d06565b9750506020610e488a828b01610d30565b9650506040610e598a828b01610d45565b9550506060610e6a8a828b01610d30565b9450506080610e7b8a828b01610d30565b93505060a0610e8c8a828b01610d30565b92505060c0610e9d8a828b01610d06565b91505092959891949750929550565b610eb58161139b565b82525050565b6000610ec8601e836112a0565b9150610ed382611416565b602082019050919050565b6000610eeb6019836112a0565b9150610ef68261143f565b602082019050919050565b6000610f0e601a836112a0565b9150610f1982611468565b602082019050919050565b6000610f31601c836112a0565b9150610f3c82611491565b602082019050919050565b6000610f546025836112a0565b9150610f5f826114ba565b604082019050919050565b6000610f77601e836112a0565b9150610f8282611509565b602082019050919050565b6000610f9a6018836112a0565b9150610fa582611532565b602082019050919050565b6000610fbd6026836112a0565b9150610fc88261155b565b604082019050919050565b6000610fe0601b836112a0565b9150610feb826115aa565b602082019050919050565b610fff816113cd565b82525050565b61100e816113d7565b82525050565b60006060820190506110296000830186610eac565b6110366020830185610eac565b6110436040830184610ff6565b949350505050565b600060e082019050611060600083018a610eac565b61106d6020830189610ff6565b61107a6040830188611005565b6110876060830187610ff6565b6110946080830186610ff6565b6110a160a0830185610ff6565b6110ae60c0830184610eac565b98975050505050505050565b600060208201905081810360008301526110d381610ebb565b9050919050565b600060208201905081810360008301526110f381610ede565b9050919050565b6000602082019050818103600083015261111381610f01565b9050919050565b6000602082019050818103600083015261113381610f24565b9050919050565b6000602082019050818103600083015261115381610f47565b9050919050565b6000602082019050818103600083015261117381610f6a565b9050919050565b6000602082019050818103600083015261119381610f8d565b9050919050565b600060208201905081810360008301526111b381610fb0565b9050919050565b600060208201905081810360008301526111d381610fd3565b9050919050565b60006020820190506111ef6000830184610ff6565b92915050565b60006101608201905061120b600083018e611005565b611218602083018d610ff6565b611225604083018c610ff6565b611232606083018b610ff6565b61123f608083018a610ff6565b61124c60a0830189610eac565b61125960c0830188610ff6565b61126660e0830187610eac565b611274610100830186610eac565b611282610120830185610eac565b611290610140830184610eac565b9c9b505050505050505050505050565b600082825260208201905092915050565b60006112bc826113cd565b91506112c7836113cd565b9250827fffffffffffffffffffffffffffffffffffffffffffffffffffffffffffffffff038211156112fc576112fb6113e7565b5b828201905092915050565b6000611312826113d7565b915061131d836113d7565b92508263ffffffff03821115611336576113356113e7565b5b828201905092915050565b600061134c826113cd565b9150611357836113cd565b9250817fffffffffffffffffffffffffffffffffffffffffffffffffffffffffffffffff04831182151516156113905761138f6113e7565b5b828202905092915050565b60006113a6826113ad565b9050919050565b600073ffffffffffffffffffffffffffffffffffffffff82169050919050565b6000819050919050565b600063ffffffff82169050919050565b7f4e487b7100000000000000000000000000000000000000000000000000000000600052601160045260246000fd5b7f4f6e6c79206f776e65722063616e2063616e63656c207468652073616c650000600082015250565b7f53656c6c65722063616e27742062757920686973204e46542100000000000000600082015250565b7f5468652061756374696f6e20706572696f64206973206f766572000000000000600082015250565b7f53656c6c65722063616e27742062696420746f20686973204e46542100000000600082015250565b7f596f7520626964206d75737420626520686967686572207468616e206d696e2060008201527f7072696365000000000000000000000000000000000000000000000000000000602082015250565b7f4f6e6c79206f776e65722063616e20707574204e4654206f6e2073616c650000600082015250565b7f5468652070726963657320646f206e6f74206d61746368210000000000000000600082015250565b7f596f757220626964206d75737420626520686967686572207468616e2070726560008201527f7620626964210000000000000000000000000000000000000000000000000000602082015250565b7f54686973204e465420697320616c7265616479206f6e2073616c650000000000600082015250565b6115dc8161139b565b81146115e757600080fd5b50565b6115f3816113cd565b81146115fe57600080fd5b50565b61160a816113d7565b811461161557600080fd5b5056fea2646970667358221220d4a268d1058966d6b4a0d3d93ccbfb0a9f0f2c08d497b3c3a52e6bfb6810d1bd64736f6c63430008040033",
  "immutableReferences": {},
  "source": "// SPDX-License-Identifier: MIT\r\npragma solidity ^0.8.0;\r\n\r\nimport \"@openzeppelin/contracts/token/ERC721/IERC721.sol\";\r\nimport \"@openzeppelin/contracts/token/ERC721/ERC721.sol\";\r\nimport \"@openzeppelin/contracts/token/ERC20/IERC20.sol\";\r\n\r\ncontract NFTMarketplace {\r\n    mapping (address => mapping(uint256 => Sale)) public nftContractSales;\r\n    mapping(address => uint256) failedTransferCredits;  // It saves the sent money for failed recipients\r\n    struct Sale {\r\n        uint32 bidIncreasePercentage;\r\n        uint256 auctionBidPeriod; //Increments the length of time the auction is open in which a new bid can be made after each bid.\r\n        uint256 auctionEnd;\r\n        uint256 minPrice;\r\n        uint256 buyNowPrice;\r\n        address nftSeller;\r\n        uint256 nftHighestBid;\r\n        address nftHighestBidder;\r\n        address whitelistedBuyer; //The seller can specify a whitelisted address for a sale (this is effectively a direct sale).\r\n        address nftRecipient; //The bidder can specify a recipient for the NFT if their bid is successful.\r\n        address ERC20Token; // The seller can specify an ERC20 token that can be used to bid or purchase the NFT.\r\n    }\r\n\r\n    // -----------------------------Start Modifiers----------------------------\r\n\r\n    modifier onlyOwner(address _nftContractAddress, uint256 _tokenId, address _sender) {\r\n        require (_ownerOf(_nftContractAddress, _tokenId) == _sender, \"You are not the owner\");\r\n        _;\r\n    }\r\n\r\n    // ------------------------------End Modifiers----------------------------\r\n\r\n    // ------------------------------Internal Functions-------------------------------\r\n    function _resetSale(\r\n        address _nftContractAddress,\r\n        uint256 _tokenId\r\n    ) internal {\r\n        Sale storage sale = nftContractSales[_nftContractAddress][_tokenId];\r\n        sale.nftSeller = address(0);\r\n        sale.minPrice = 0;\r\n        sale.buyNowPrice = 0;\r\n        sale.auctionBidPeriod = 0;\r\n    }\r\n\r\n    function _isERC20Auction(address _auctionERC20Token) internal pure returns (bool)\r\n    {\r\n        return _auctionERC20Token != address(0);\r\n    }\r\n\r\n    function _isOnSale(\r\n        address _nftContractAddress,\r\n        uint256 _tokenId\r\n    ) internal view returns (bool) {\r\n        return !(nftContractSales[_nftContractAddress][_tokenId].nftSeller == address(0));\r\n    }\r\n\r\n    function _isFirstBidMade(\r\n        address _nftContractAddress,\r\n        uint256 _tokenId\r\n    ) internal view returns (bool) {\r\n        Sale storage sale = nftContractSales[_nftContractAddress][_tokenId];\r\n        return (sale.nftHighestBid >= sale.minPrice);\r\n    }\r\n\r\n    function _ownerOf(\r\n        address _nftContractAddress,\r\n        uint256 _tokenId\r\n    ) internal view returns (address) {\r\n        IERC721 nftContract = IERC721(_nftContractAddress);\r\n        Sale storage sale = nftContractSales[_nftContractAddress][_tokenId];\r\n        if (sale.nftSeller == address(0)) {\r\n            return nftContract.ownerOf(_tokenId);\r\n        }\r\n        return sale.nftSeller;\r\n    }\r\n\r\n    function _payout(\r\n        address _nftContractAddress,\r\n        uint256 _tokenId,\r\n        address _recipient,\r\n        uint256 _price\r\n    ) internal {\r\n        address auctionERC20Token = nftContractSales[_nftContractAddress][_tokenId].ERC20Token;\r\n        if (_isERC20Auction(auctionERC20Token)) {\r\n            IERC20(auctionERC20Token).transfer(_recipient, _price);\r\n        } else {\r\n            (bool success, ) = payable(_recipient).call{ value: _price, gas: 21000 }(\"\");\r\n            if (!success) {\r\n                failedTransferCredits[_recipient] = failedTransferCredits[_recipient] + _price;\r\n            }\r\n        }\r\n    }\r\n\r\n    function _setSale(\r\n        address _nftContractAddress,\r\n        uint256 _tokenId,\r\n        uint32 _bidIncreasePercentage,\r\n        uint256 _auctionBidPeriod,\r\n        uint256 _minPrice,\r\n        uint256 _buyNowPrice,\r\n        address _ERC20Token\r\n    ) internal {\r\n        Sale storage sale = nftContractSales[_nftContractAddress][_tokenId];\r\n        sale.bidIncreasePercentage = _bidIncreasePercentage;\r\n        sale.auctionBidPeriod = _auctionBidPeriod;\r\n        sale.minPrice = _minPrice;\r\n        sale.buyNowPrice = _buyNowPrice;\r\n        sale.ERC20Token = _ERC20Token;\r\n    }\r\n\r\n    function _updateHighestBid(\r\n        address _nftContractAddress,\r\n        uint256 _tokenId,\r\n        uint256 _price\r\n    ) internal {\r\n        address auctionERC20Token = nftContractSales[_nftContractAddress][_tokenId].ERC20Token;\r\n        if (_isERC20Auction(auctionERC20Token)) {\r\n            IERC20(auctionERC20Token).transferFrom(\r\n                msg.sender,\r\n                address(this),\r\n                _price\r\n            );\r\n        }\r\n        nftContractSales[_nftContractAddress][_tokenId].nftHighestBid = _price;\r\n        nftContractSales[_nftContractAddress][_tokenId].nftHighestBidder = msg.sender;\r\n    }\r\n\r\n    function _reversePreviousBidAndYUpdateHighestBid(\r\n        address _nftContractAddress,\r\n        uint256 _tokenId,\r\n        uint256 _price\r\n    ) internal {\r\n        address prevNftHighestBidder = nftContractSales[_nftContractAddress][_tokenId].nftHighestBidder;\r\n        uint256 prevNftHighestBid = nftContractSales[_nftContractAddress][_tokenId].nftHighestBid;\r\n        _updateHighestBid(_nftContractAddress, _tokenId, _price);\r\n        if (prevNftHighestBidder != address(0)) {\r\n            _payout(\r\n                _nftContractAddress,\r\n                _tokenId,\r\n                prevNftHighestBidder,\r\n                prevNftHighestBid\r\n            );\r\n        }\r\n    }\r\n\r\n    event PutOnSale(\r\n        address _nftContractAddress,\r\n        uint256 _tokenId,\r\n        uint32 _bidIncreasePercentage,\r\n        uint256 _auctionBidPeriod,\r\n        uint256 _minPrice,\r\n        uint256 _buyNowPrice,\r\n        address _ERC20Token\r\n    );\r\n    //This can be sale or auction.\r\n    function putOnSale(\r\n        address _nftContractAddress,\r\n        uint256 _tokenId,\r\n        uint32 _bidIncreasePercentage,\r\n        uint256 _auctionBidPeriod,\r\n        uint256 _minPrice,\r\n        uint256 _buyNowPrice,\r\n        address _ERC20Token \r\n    ) public {\r\n        IERC721 nftContract = IERC721(_nftContractAddress);\r\n        Sale storage sale = nftContractSales[_nftContractAddress][_tokenId];\r\n        require(nftContract.ownerOf(_tokenId) == msg.sender, \"Only owner can put NFT on sale\");\r\n        require(sale.nftSeller == address(0), \"This NFT is already on sale\");\r\n        _setSale(\r\n            _nftContractAddress, \r\n            _tokenId,\r\n            _bidIncreasePercentage,\r\n            _auctionBidPeriod,\r\n            _minPrice,\r\n            _buyNowPrice,\r\n            _ERC20Token\r\n        );\r\n        sale.nftSeller = msg.sender;\r\n        nftContract.transferFrom(msg.sender, address(this), _tokenId);\r\n        emit PutOnSale(\r\n            _nftContractAddress, \r\n            _tokenId,\r\n            _bidIncreasePercentage,\r\n            _auctionBidPeriod,\r\n            _minPrice,\r\n            _buyNowPrice,\r\n            _ERC20Token\r\n        );\r\n    }\r\n\r\n    function cancelSale(\r\n        address _nftContractAddress,\r\n        uint256 _tokenId\r\n    ) public {\r\n        Sale storage sale = nftContractSales[_nftContractAddress][_tokenId];\r\n        require(sale.nftSeller == msg.sender, \"Only owner can cancel the sale\");\r\n        _resetSale(_nftContractAddress, _tokenId);\r\n    }\r\n\r\n    function buyFromSale(\r\n        address _nftContractAddress,\r\n        uint256 _tokenId\r\n    ) public payable {\r\n        Sale storage sale = nftContractSales[_nftContractAddress][_tokenId];\r\n        IERC721 nftContract = IERC721(_nftContractAddress);\r\n        require(msg.value == sale.buyNowPrice, \"The prices do not match!\");\r\n        require(msg.sender != sale.nftSeller, \"Seller can't buy his NFT!\");\r\n        payable(sale.nftSeller).transfer(msg.value);\r\n        _resetSale(_nftContractAddress, _tokenId);\r\n        nftContract.transferFrom(address(this), msg.sender, _tokenId);\r\n    }\r\n\r\n    function makeBid(\r\n        address _nftContractAddress,\r\n        uint256 _tokenId,\r\n        uint256 _price\r\n    ) public payable {\r\n        Sale storage sale = nftContractSales[_nftContractAddress][_tokenId];\r\n        require(msg.sender != sale.nftSeller, \"Seller can't bid to his NFT!\");\r\n        // The bid price meets the instant price\r\n        if (sale.buyNowPrice > 0 && _price == sale.buyNowPrice) {\r\n            // buyFromSale{ value: _price }(_nftContractAddress, _tokenId);\r\n        }\r\n        if(_isFirstBidMade(_nftContractAddress, _tokenId)) {\r\n            require(_price >= sale.minPrice, \"You bid must be higher than min price\");\r\n            sale.auctionEnd = sale.auctionBidPeriod + block.timestamp;\r\n            sale.nftHighestBid = _price;\r\n            sale.nftHighestBidder = msg.sender;\r\n        } else {\r\n            require(block.timestamp <= sale.auctionEnd, \"The auction period is over\");\r\n            require(sale.nftHighestBid * (100 + sale.bidIncreasePercentage) <= _price, \"Your bid must be higher than prev bid!\");\r\n            sale.nftHighestBid = _price;\r\n            sale.nftHighestBidder = msg.sender;\r\n        }\r\n    }\r\n\r\n}",
  "sourcePath": "E:\\2.Dev\\Clients\\US -- Toufik\\bwindi_frontend-master\\src\\contracts\\NFTMarketplace.sol",
  "compiler": {
    "name": "solc",
    "version": "0.8.4+commit.c7e474f2.Emscripten.clang"
  },
  "schemaVersion": "3.4.4",
  "updatedAt": "2022-02-05T15:43:39.627Z",
  "devdoc": {
    "kind": "dev",
    "methods": {},
    "version": 1
  },
  "userdoc": {
    "kind": "user",
    "methods": {},
    "version": 1
  }
}